{
  "contractName": "transacaoParcelada",
  "abi": [
    {
      "inputs": [
        {
          "internalType": "uint256",
          "name": "_rate",
          "type": "uint256"
        }
      ],
      "stateMutability": "nonpayable",
      "type": "constructor"
    },
    {
      "inputs": [],
      "name": "fundedValue",
      "outputs": [
        {
          "internalType": "uint256",
          "name": "",
          "type": "uint256"
        }
      ],
      "stateMutability": "view",
      "type": "function",
      "constant": true
    },
    {
      "inputs": [
        {
          "internalType": "address",
          "name": "",
          "type": "address"
        },
        {
          "internalType": "uint256",
          "name": "",
          "type": "uint256"
        }
      ],
      "name": "myAcceptedTransactions",
      "outputs": [
        {
          "internalType": "uint256",
          "name": "",
          "type": "uint256"
        }
      ],
      "stateMutability": "view",
      "type": "function",
      "constant": true
    },
    {
      "inputs": [],
      "name": "owner",
      "outputs": [
        {
          "internalType": "address",
          "name": "",
          "type": "address"
        }
      ],
      "stateMutability": "view",
      "type": "function",
      "constant": true
    },
    {
      "inputs": [],
      "name": "rate",
      "outputs": [
        {
          "internalType": "uint256",
          "name": "",
          "type": "uint256"
        }
      ],
      "stateMutability": "view",
      "type": "function",
      "constant": true
    },
    {
      "inputs": [
        {
          "internalType": "address",
          "name": "",
          "type": "address"
        }
      ],
      "name": "stakedEth",
      "outputs": [
        {
          "internalType": "uint256",
          "name": "",
          "type": "uint256"
        }
      ],
      "stateMutability": "view",
      "type": "function",
      "constant": true
    },
    {
      "inputs": [],
      "name": "totalSponsors",
      "outputs": [
        {
          "internalType": "uint256",
          "name": "",
          "type": "uint256"
        }
      ],
      "stateMutability": "view",
      "type": "function",
      "constant": true
    },
    {
      "inputs": [],
      "name": "totalValue",
      "outputs": [
        {
          "internalType": "uint256",
          "name": "",
          "type": "uint256"
        }
      ],
      "stateMutability": "view",
      "type": "function",
      "constant": true
    },
    {
      "inputs": [
        {
          "internalType": "uint256",
          "name": "",
          "type": "uint256"
        }
      ],
      "name": "transactions",
      "outputs": [
        {
          "internalType": "uint256",
          "name": "id",
          "type": "uint256"
        },
        {
          "internalType": "int256",
          "name": "valor_ativo",
          "type": "int256"
        },
        {
          "internalType": "int256",
          "name": "parcelas",
          "type": "int256"
        },
        {
          "internalType": "int256",
          "name": "valorParcela",
          "type": "int256"
        },
        {
          "internalType": "int256",
          "name": "valorTotal",
          "type": "int256"
        },
        {
          "internalType": "address",
          "name": "sender",
          "type": "address"
        },
        {
          "internalType": "bool",
          "name": "finalized",
          "type": "bool"
        },
        {
          "internalType": "uint256",
          "name": "valorEnviado",
          "type": "uint256"
        },
        {
          "internalType": "uint256",
          "name": "slipage",
          "type": "uint256"
        },
        {
          "internalType": "uint256",
          "name": "valMaisSlipage",
          "type": "uint256"
        },
        {
          "internalType": "int256",
          "name": "valorPago",
          "type": "int256"
        }
      ],
      "stateMutability": "view",
      "type": "function",
      "constant": true
    },
    {
      "inputs": [
        {
          "internalType": "address",
          "name": "",
          "type": "address"
        },
        {
          "internalType": "uint256",
          "name": "",
          "type": "uint256"
        }
      ],
      "name": "userTransactions",
      "outputs": [
        {
          "internalType": "uint256",
          "name": "",
          "type": "uint256"
        }
      ],
      "stateMutability": "view",
      "type": "function",
      "constant": true
    },
    {
      "inputs": [
        {
          "internalType": "int256",
          "name": "_parcelas",
          "type": "int256"
        },
        {
          "internalType": "uint256",
          "name": "quantidade",
          "type": "uint256"
        },
        {
          "internalType": "uint256",
          "name": "_slipage",
          "type": "uint256"
        }
      ],
      "name": "createTransaction",
      "outputs": [],
      "stateMutability": "payable",
      "type": "function",
      "payable": true
    },
    {
      "inputs": [
        {
          "internalType": "uint256",
          "name": "_id",
          "type": "uint256"
        }
      ],
      "name": "executeParcel",
      "outputs": [],
      "stateMutability": "nonpayable",
      "type": "function"
    },
    {
      "inputs": [],
      "name": "executeAutomation",
      "outputs": [],
      "stateMutability": "nonpayable",
      "type": "function"
    },
    {
      "inputs": [],
      "name": "getMyTransactions",
      "outputs": [
        {
          "internalType": "uint256[]",
          "name": "",
          "type": "uint256[]"
        }
      ],
      "stateMutability": "view",
      "type": "function",
      "constant": true
    },
    {
      "inputs": [],
      "name": "getMyAcceptedTransactions",
      "outputs": [
        {
          "internalType": "uint256[]",
          "name": "",
          "type": "uint256[]"
        }
      ],
      "stateMutability": "view",
      "type": "function",
      "constant": true
    },
    {
      "inputs": [],
      "name": "getTransactions",
      "outputs": [
        {
          "components": [
            {
              "internalType": "uint256",
              "name": "id",
              "type": "uint256"
            },
            {
              "internalType": "int256",
              "name": "valor_ativo",
              "type": "int256"
            },
            {
              "internalType": "int256",
              "name": "parcelas",
              "type": "int256"
            },
            {
              "internalType": "int256",
              "name": "valorParcela",
              "type": "int256"
            },
            {
              "internalType": "int256",
              "name": "valorTotal",
              "type": "int256"
            },
            {
              "internalType": "address",
              "name": "sender",
              "type": "address"
            },
            {
              "internalType": "bool",
              "name": "finalized",
              "type": "bool"
            },
            {
              "internalType": "uint256",
              "name": "valorEnviado",
              "type": "uint256"
            },
            {
              "internalType": "uint256",
              "name": "slipage",
              "type": "uint256"
            },
            {
              "internalType": "uint256",
              "name": "valMaisSlipage",
              "type": "uint256"
            },
            {
              "internalType": "int256",
              "name": "valorPago",
              "type": "int256"
            }
          ],
          "internalType": "struct transacaoParcelada.transaction[]",
          "name": "",
          "type": "tuple[]"
        }
      ],
      "stateMutability": "view",
      "type": "function",
      "constant": true
    },
    {
      "inputs": [
        {
          "internalType": "uint256",
          "name": "_id",
          "type": "uint256"
        }
      ],
      "name": "getTransaction",
      "outputs": [
        {
          "components": [
            {
              "internalType": "uint256",
              "name": "id",
              "type": "uint256"
            },
            {
              "internalType": "int256",
              "name": "valor_ativo",
              "type": "int256"
            },
            {
              "internalType": "int256",
              "name": "parcelas",
              "type": "int256"
            },
            {
              "internalType": "int256",
              "name": "valorParcela",
              "type": "int256"
            },
            {
              "internalType": "int256",
              "name": "valorTotal",
              "type": "int256"
            },
            {
              "internalType": "address",
              "name": "sender",
              "type": "address"
            },
            {
              "internalType": "bool",
              "name": "finalized",
              "type": "bool"
            },
            {
              "internalType": "uint256",
              "name": "valorEnviado",
              "type": "uint256"
            },
            {
              "internalType": "uint256",
              "name": "slipage",
              "type": "uint256"
            },
            {
              "internalType": "uint256",
              "name": "valMaisSlipage",
              "type": "uint256"
            },
            {
              "internalType": "int256",
              "name": "valorPago",
              "type": "int256"
            }
          ],
          "internalType": "struct transacaoParcelada.transaction",
          "name": "",
          "type": "tuple"
        }
      ],
      "stateMutability": "view",
      "type": "function",
      "constant": true
    },
    {
      "inputs": [],
      "name": "stakeEth",
      "outputs": [],
      "stateMutability": "payable",
      "type": "function",
      "payable": true
    },
    {
      "inputs": [],
      "name": "myStakedEth",
      "outputs": [
        {
          "internalType": "uint256",
          "name": "",
          "type": "uint256"
        }
      ],
      "stateMutability": "view",
      "type": "function",
      "constant": true
    },
    {
      "inputs": [
        {
          "internalType": "uint256",
          "name": "_amount",
          "type": "uint256"
        }
      ],
      "name": "withdrawStakedEth",
      "outputs": [],
      "stateMutability": "nonpayable",
      "type": "function"
    },
    {
      "inputs": [
        {
          "internalType": "uint256",
          "name": "_id",
          "type": "uint256"
        }
      ],
      "name": "withDrawExcedent",
      "outputs": [],
      "stateMutability": "nonpayable",
      "type": "function"
    }
  ],
  "bytecode": "0x608060405234801562000010575f80fd5b506040516200255038038062002550833981810160405281019062000036919062000113565b7359f1ec1f10bd7ed9b938431086bc1d9e233ecf415f806101000a81548173ffffffffffffffffffffffffffffffffffffffff021916908373ffffffffffffffffffffffffffffffffffffffff160217905550806004819055503360055f6101000a81548173ffffffffffffffffffffffffffffffffffffffff021916908373ffffffffffffffffffffffffffffffffffffffff1602179055505062000143565b5f80fd5b5f819050919050565b620000ef81620000db565b8114620000fa575f80fd5b50565b5f815190506200010d81620000e4565b92915050565b5f602082840312156200012b576200012a620000d7565b5b5f6200013a84828501620000fd565b91505092915050565b6123ff80620001515f395ff3fe60806040526004361061011e575f3560e01c80639977fcf01161009f578063df2bba0811610063578063df2bba08146103a4578063f1cbb154146103ce578063f1ffd4a1146103f8578063f45ac7ec14610420578063f865258c1461045c5761011e565b80639977fcf0146102b25780639ace38c2146102ce578063b842ec4414610314578063cf40206014610350578063d4c3eea01461037a5761011e565b80636baa24a9116100e65780636baa24a9146102025780637a5f0dc41461022a57806383920e90146102345780638da5cb5b1461025e57806397e4ca70146102885761011e565b80632ad1285b146101225780632c4e722e1461014a57806333ea3dc8146101745780633b9ff487146101b05780633bbcb09a146101ec575b5f80fd5b34801561012d575f80fd5b50610148600480360381019061014391906115ec565b610486565b005b348015610155575f80fd5b5061015e610617565b60405161016b9190611626565b60405180910390f35b34801561017f575f80fd5b5061019a600480360381019061019591906115ec565b61061d565b6040516101a7919061179e565b60405180910390f35b3480156101bb575f80fd5b506101d660048036038101906101d191906117e2565b610721565b6040516101e39190611626565b60405180910390f35b3480156101f7575f80fd5b5061020061074c565b005b34801561020d575f80fd5b50610228600480360381019061022391906115ec565b610845565b005b610232610a68565b005b34801561023f575f80fd5b50610248610aee565b60405161025591906119a8565b60405180910390f35b348015610269575f80fd5b50610272610c14565b60405161027f91906119d7565b60405180910390f35b348015610293575f80fd5b5061029c610c39565b6040516102a99190611a98565b60405180910390f35b6102cc60048036038101906102c79190611ae2565b610cca565b005b3480156102d9575f80fd5b506102f460048036038101906102ef91906115ec565b61103a565b60405161030b9b9a99989796959493929190611b50565b60405180910390f35b34801561031f575f80fd5b5061033a600480360381019061033591906117e2565b6110cb565b6040516103479190611626565b60405180910390f35b34801561035b575f80fd5b506103646110f6565b6040516103719190611626565b60405180910390f35b348015610385575f80fd5b5061038e6110fc565b60405161039b9190611626565b60405180910390f35b3480156103af575f80fd5b506103b8611102565b6040516103c59190611626565b60405180910390f35b3480156103d9575f80fd5b506103e2611108565b6040516103ef9190611a98565b60405180910390f35b348015610403575f80fd5b5061041e600480360381019061041991906115ec565b611199565b005b34801561042b575f80fd5b5061044660048036038101906104419190611bf9565b6114f5565b6040516104539190611626565b60405180910390f35b348015610467575f80fd5b5061047061150a565b60405161047d9190611626565b60405180910390f35b8060095f3373ffffffffffffffffffffffffffffffffffffffff1673ffffffffffffffffffffffffffffffffffffffff1681526020019081526020015f20541015610506576040517f08c379a00000000000000000000000000000000000000000000000000000000081526004016104fd90611ca4565b60405180910390fd5b8060095f3373ffffffffffffffffffffffffffffffffffffffff1673ffffffffffffffffffffffffffffffffffffffff1681526020019081526020015f20540361056457600160035f82825461055c9190611cef565b925050819055505b8060095f3373ffffffffffffffffffffffffffffffffffffffff1673ffffffffffffffffffffffffffffffffffffffff1681526020019081526020015f205f8282546105b09190611cef565b925050819055503373ffffffffffffffffffffffffffffffffffffffff166108fc60045460016105e09190611d22565b836105eb9190611d55565b90811502906040515f60405180830381858888f19350505050158015610613573d5f803e3d5ffd5b5050565b60045481565b61062561154e565b6006828154811061063957610638611d96565b5b905f5260205f2090600a0201604051806101600160405290815f820154815260200160018201548152602001600282015481526020016003820154815260200160048201548152602001600582015f9054906101000a900473ffffffffffffffffffffffffffffffffffffffff1673ffffffffffffffffffffffffffffffffffffffff1673ffffffffffffffffffffffffffffffffffffffff1681526020016005820160149054906101000a900460ff161515151581526020016006820154815260200160078201548152602001600882015481526020016009820154815250509050919050565b6008602052815f5260405f20818154811061073a575f80fd5b905f5260205f20015f91509150505481565b60055f9054906101000a900473ffffffffffffffffffffffffffffffffffffffff1673ffffffffffffffffffffffffffffffffffffffff163373ffffffffffffffffffffffffffffffffffffffff16146107db576040517f08c379a00000000000000000000000000000000000000000000000000000000081526004016107d290611e33565b60405180910390fd5b5f5b600680549050811015610842575f15156006828154811061080157610800611d96565b5b905f5260205f2090600a020160050160149054906101000a900460ff1615150361082f5761082e81611199565b5b808061083a90611e51565b9150506107dd565b50565b6006818154811061085957610858611d96565b5b905f5260205f2090600a02016005015f9054906101000a900473ffffffffffffffffffffffffffffffffffffffff1673ffffffffffffffffffffffffffffffffffffffff163373ffffffffffffffffffffffffffffffffffffffff16146108f5576040517f08c379a00000000000000000000000000000000000000000000000000000000081526004016108ec90611f08565b60405180910390fd5b600115156006828154811061090d5761090c611d96565b5b905f5260205f2090600a020160050160149054906101000a900460ff1615151461096c576040517f08c379a000000000000000000000000000000000000000000000000000000000815260040161096390611f96565b60405180910390fd5b5f6006828154811061098157610980611d96565b5b905f5260205f2090600a020160040154136109d1576040517f08c379a00000000000000000000000000000000000000000000000000000000081526004016109c890611ffe565b60405180910390fd5b5f600682815481106109e6576109e5611d96565b5b905f5260205f2090600a02016004015490505f60068381548110610a0d57610a0c611d96565b5b905f5260205f2090600a0201600401819055503373ffffffffffffffffffffffffffffffffffffffff166108fc8290811502906040515f60405180830381858888f19350505050158015610a63573d5f803e3d5ffd5b505050565b3460095f3373ffffffffffffffffffffffffffffffffffffffff1673ffffffffffffffffffffffffffffffffffffffff1681526020019081526020015f205f828254610ab49190611d22565b92505081905550600160035f828254610acd9190611d22565b925050819055503460025f828254610ae59190611d22565b92505081905550565b60606006805480602002602001604051908101604052809291908181526020015f905b82821015610c0b578382905f5260205f2090600a0201604051806101600160405290815f820154815260200160018201548152602001600282015481526020016003820154815260200160048201548152602001600582015f9054906101000a900473ffffffffffffffffffffffffffffffffffffffff1673ffffffffffffffffffffffffffffffffffffffff1673ffffffffffffffffffffffffffffffffffffffff1681526020016005820160149054906101000a900460ff1615151515815260200160068201548152602001600782015481526020016008820154815260200160098201548152505081526020019060010190610b11565b50505050905090565b60055f9054906101000a900473ffffffffffffffffffffffffffffffffffffffff1681565b606060075f3373ffffffffffffffffffffffffffffffffffffffff1673ffffffffffffffffffffffffffffffffffffffff1681526020019081526020015f20805480602002602001604051908101604052809291908181526020018280548015610cc057602002820191905f5260205f20905b815481526020019060010190808311610cac575b5050505050905090565b8082610cd69190611d22565b3414610d17576040517f08c379a0000000000000000000000000000000000000000000000000000000008152600401610d0e906120b2565b60405180910390fd5b5f8313610d59576040517f08c379a0000000000000000000000000000000000000000000000000000000008152600401610d509061211a565b60405180910390fd5b5f805f9054906101000a900473ffffffffffffffffffffffffffffffffffffffff1673ffffffffffffffffffffffffffffffffffffffff1663feaf968c6040518163ffffffff1660e01b815260040160a060405180830381865afa158015610dc3573d5f803e3d5ffd5b505050506040513d601f19601f82011682018060405250810190610de7919061219f565b5050509150505f3482610dfa9190612216565b90505f8582610e0991906122b9565b90505f6004546001610e1b9190611d22565b8534610e279190611d22565b610e319190611d55565b905060075f3373ffffffffffffffffffffffffffffffffffffffff1673ffffffffffffffffffffffffffffffffffffffff1681526020019081526020015f20600680549050908060018154018082558091505060019003905f5260205f20015f9091909190915055600660405180610160016040528060068054905081526020018681526020018981526020018481526020018581526020013373ffffffffffffffffffffffffffffffffffffffff1681526020015f151581526020013481526020018781526020018381526020015f815250908060018154018082558091505060019003905f5260205f2090600a02015f909190919091505f820151815f01556020820151816001015560408201518160020155606082015181600301556080820151816004015560a0820151816005015f6101000a81548173ffffffffffffffffffffffffffffffffffffffff021916908373ffffffffffffffffffffffffffffffffffffffff16021790555060c08201518160050160146101000a81548160ff02191690831515021790555060e0820151816006015561010082015181600701556101208201518160080155610140820151816009015550503373ffffffffffffffffffffffffffffffffffffffff166108fc8790811502906040515f60405180830381858888f19350505050158015611030573d5f803e3d5ffd5b5050505050505050565b60068181548110611049575f80fd5b905f5260205f2090600a02015f91509050805f015490806001015490806002015490806003015490806004015490806005015f9054906101000a900473ffffffffffffffffffffffffffffffffffffffff16908060050160149054906101000a900460ff1690806006015490806007015490806008015490806009015490508b565b6007602052815f5260405f2081815481106110e4575f80fd5b905f5260205f20015f91509150505481565b60035481565b60025481565b60015481565b606060085f3373ffffffffffffffffffffffffffffffffffffffff1673ffffffffffffffffffffffffffffffffffffffff1681526020019081526020015f2080548060200260200160405190810160405280929190818152602001828054801561118f57602002820191905f5260205f20905b81548152602001906001019080831161117b575b5050505050905090565b60055f9054906101000a900473ffffffffffffffffffffffffffffffffffffffff1673ffffffffffffffffffffffffffffffffffffffff163373ffffffffffffffffffffffffffffffffffffffff1614611228576040517f08c379a000000000000000000000000000000000000000000000000000000000815260040161121f90611e33565b60405180910390fd5b5f15156006828154811061123f5761123e611d96565b5b905f5260205f2090600a020160050160149054906101000a900460ff16151514611267575f80fd5b5f6006828154811061127c5761127b611d96565b5b905f5260205f2090600a020160020154136112cc576040517f08c379a00000000000000000000000000000000000000000000000000000000081526004016112c39061236b565b60405180910390fd5b5f805f9054906101000a900473ffffffffffffffffffffffffffffffffffffffff1673ffffffffffffffffffffffffffffffffffffffff1663feaf968c6040518163ffffffff1660e01b815260040160a060405180830381865afa158015611336573d5f803e3d5ffd5b505050506040513d601f19601f8201168201806040525081019061135a919061219f565b5050509150505f816006848154811061137657611375611d96565b5b905f5260205f2090600a0201600801546113909190612216565b90505f600684815481106113a7576113a6611d96565b5b905f5260205f2090600a020160060154836113c29190612216565b90508181121561140d576001600685815481106113e2576113e1611d96565b5b905f5260205f2090600a020160050160146101000a81548160ff0219169083151502179055506114ef565b6006848154811061142157611420611d96565b5b905f5260205f2090600a0201600201546006858154811061144557611444611d96565b5b905f5260205f2090600a0201600901546006868154811061146957611468611d96565b5b905f5260205f2090600a0201600601546114839190612389565b61148d91906122b9565b600685815481106114a1576114a0611d96565b5b905f5260205f2090600a0201600901819055506001600685815481106114ca576114c9611d96565b5b905f5260205f2090600a02016002015f8282546114e79190612389565b925050819055505b50505050565b6009602052805f5260405f205f915090505481565b5f60095f3373ffffffffffffffffffffffffffffffffffffffff1673ffffffffffffffffffffffffffffffffffffffff1681526020019081526020015f2054905090565b6040518061016001604052805f81526020015f81526020015f81526020015f81526020015f81526020015f73ffffffffffffffffffffffffffffffffffffffff1681526020015f151581526020015f81526020015f81526020015f81526020015f81525090565b5f80fd5b5f819050919050565b6115cb816115b9565b81146115d5575f80fd5b50565b5f813590506115e6816115c2565b92915050565b5f60208284031215611601576116006115b5565b5b5f61160e848285016115d8565b91505092915050565b611620816115b9565b82525050565b5f6020820190506116395f830184611617565b92915050565b611648816115b9565b82525050565b5f819050919050565b6116608161164e565b82525050565b5f73ffffffffffffffffffffffffffffffffffffffff82169050919050565b5f61168f82611666565b9050919050565b61169f81611685565b82525050565b5f8115159050919050565b6116b9816116a5565b82525050565b61016082015f8201516116d45f85018261163f565b5060208201516116e76020850182611657565b5060408201516116fa6040850182611657565b50606082015161170d6060850182611657565b5060808201516117206080850182611657565b5060a082015161173360a0850182611696565b5060c082015161174660c08501826116b0565b5060e082015161175960e085018261163f565b5061010082015161176e61010085018261163f565b5061012082015161178361012085018261163f565b50610140820151611798610140850182611657565b50505050565b5f610160820190506117b25f8301846116bf565b92915050565b6117c181611685565b81146117cb575f80fd5b50565b5f813590506117dc816117b8565b92915050565b5f80604083850312156117f8576117f76115b5565b5b5f611805858286016117ce565b9250506020611816858286016115d8565b9150509250929050565b5f81519050919050565b5f82825260208201905092915050565b5f819050602082019050919050565b61016082015f82015161185e5f85018261163f565b5060208201516118716020850182611657565b5060408201516118846040850182611657565b5060608201516118976060850182611657565b5060808201516118aa6080850182611657565b5060a08201516118bd60a0850182611696565b5060c08201516118d060c08501826116b0565b5060e08201516118e360e085018261163f565b506101008201516118f861010085018261163f565b5061012082015161190d61012085018261163f565b50610140820151611922610140850182611657565b50505050565b5f6119338383611849565b6101608301905092915050565b5f602082019050919050565b5f61195682611820565b611960818561182a565b935061196b8361183a565b805f5b8381101561199b5781516119828882611928565b975061198d83611940565b92505060018101905061196e565b5085935050505092915050565b5f6020820190508181035f8301526119c0818461194c565b905092915050565b6119d181611685565b82525050565b5f6020820190506119ea5f8301846119c8565b92915050565b5f81519050919050565b5f82825260208201905092915050565b5f819050602082019050919050565b5f611a24838361163f565b60208301905092915050565b5f602082019050919050565b5f611a46826119f0565b611a5081856119fa565b9350611a5b83611a0a565b805f5b83811015611a8b578151611a728882611a19565b9750611a7d83611a30565b925050600181019050611a5e565b5085935050505092915050565b5f6020820190508181035f830152611ab08184611a3c565b905092915050565b611ac18161164e565b8114611acb575f80fd5b50565b5f81359050611adc81611ab8565b92915050565b5f805f60608486031215611af957611af86115b5565b5b5f611b0686828701611ace565b9350506020611b17868287016115d8565b9250506040611b28868287016115d8565b9150509250925092565b611b3b8161164e565b82525050565b611b4a816116a5565b82525050565b5f61016082019050611b645f83018e611617565b611b71602083018d611b32565b611b7e604083018c611b32565b611b8b606083018b611b32565b611b98608083018a611b32565b611ba560a08301896119c8565b611bb260c0830188611b41565b611bbf60e0830187611617565b611bcd610100830186611617565b611bdb610120830185611617565b611be9610140830184611b32565b9c9b505050505050505050505050565b5f60208284031215611c0e57611c0d6115b5565b5b5f611c1b848285016117ce565b91505092915050565b5f82825260208201905092915050565b7f566f6365206e616f2074656d20657468657220737566696369656e74652073745f8201527f616b656400000000000000000000000000000000000000000000000000000000602082015250565b5f611c8e602483611c24565b9150611c9982611c34565b604082019050919050565b5f6020820190508181035f830152611cbb81611c82565b9050919050565b7f4e487b71000000000000000000000000000000000000000000000000000000005f52601160045260245ffd5b5f611cf9826115b9565b9150611d04836115b9565b9250828203905081811115611d1c57611d1b611cc2565b5b92915050565b5f611d2c826115b9565b9150611d37836115b9565b9250828201905080821115611d4f57611d4e611cc2565b5b92915050565b5f611d5f826115b9565b9150611d6a836115b9565b9250828202611d78816115b9565b91508282048414831517611d8f57611d8e611cc2565b5b5092915050565b7f4e487b71000000000000000000000000000000000000000000000000000000005f52603260045260245ffd5b7f536f6d656e7465206f20646f6e6f20706f6465206578656375746172206573735f8201527f612066756e63616f000000000000000000000000000000000000000000000000602082015250565b5f611e1d602883611c24565b9150611e2882611dc3565b604082019050919050565b5f6020820190508181035f830152611e4a81611e11565b9050919050565b5f611e5b826115b9565b91507fffffffffffffffffffffffffffffffffffffffffffffffffffffffffffffffff8203611e8d57611e8c611cc2565b5b600182019050919050565b7f536f6d656e7465206f20646f6e6f206461207472616e736163616f20706f64655f8201527f20657865637574617220657373612066756e63616f0000000000000000000000602082015250565b5f611ef2603583611c24565b9150611efd82611e98565b604082019050919050565b5f6020820190508181035f830152611f1f81611ee6565b9050919050565b7f5472616e736163616f2061696e6461206e616f20666f692066696e616c697a615f8201527f6461000000000000000000000000000000000000000000000000000000000000602082015250565b5f611f80602283611c24565b9150611f8b82611f26565b604082019050919050565b5f6020820190508181035f830152611fad81611f74565b9050919050565b7f4e616f206861206578636564656e746520612073657220726574697261646f005f82015250565b5f611fe8601f83611c24565b9150611ff382611fb4565b602082019050919050565b5f6020820190508181035f83015261201581611fdc565b9050919050565b7f5175616e74696461646520646520657468657220656e766961646120646576655f8201527f2073657220696775616c20616f207061737361646f207061726120612066756e60208201527f63616f0000000000000000000000000000000000000000000000000000000000604082015250565b5f61209c604383611c24565b91506120a78261201c565b606082019050919050565b5f6020820190508181035f8301526120c981612090565b9050919050565b7f50617263656c6173206465766520736572206d61696f722071756520300000005f82015250565b5f612104601d83611c24565b915061210f826120d0565b602082019050919050565b5f6020820190508181035f830152612131816120f8565b9050919050565b5f69ffffffffffffffffffff82169050919050565b61215681612138565b8114612160575f80fd5b50565b5f815190506121718161214d565b92915050565b5f8151905061218581611ab8565b92915050565b5f81519050612199816115c2565b92915050565b5f805f805f60a086880312156121b8576121b76115b5565b5b5f6121c588828901612163565b95505060206121d688828901612177565b94505060406121e78882890161218b565b93505060606121f88882890161218b565b925050608061220988828901612163565b9150509295509295909350565b5f6122208261164e565b915061222b8361164e565b92508282026122398161164e565b91507f800000000000000000000000000000000000000000000000000000000000000084145f841216156122705761226f611cc2565b5b828205841483151761228557612284611cc2565b5b5092915050565b7f4e487b71000000000000000000000000000000000000000000000000000000005f52601260045260245ffd5b5f6122c38261164e565b91506122ce8361164e565b9250826122de576122dd61228c565b5b60015f0383147f80000000000000000000000000000000000000000000000000000000000000008314161561231657612315611cc2565b5b828205905092915050565b7f546f6461732061732070617263656c6173206a6120666f72616d2070616761735f82015250565b5f612355602083611c24565b915061236082612321565b602082019050919050565b5f6020820190508181035f83015261238281612349565b9050919050565b5f6123938261164e565b915061239e8361164e565b925082820390508181125f8412168282135f8512151617156123c3576123c2611cc2565b5b9291505056fea2646970667358221220865c5758521a0df3f7f7541f4061cb5a058c7b578a40be7ba6c5bdefe30e124a64736f6c63430008140033",
  "immutableReferences": {},
  "source": "// SPDX-License-Identifier: MIT\r\npragma solidity ^0.8.15;\r\n\r\nimport {AggregatorV3Interface} from \"@chainlink/contracts/src/v0.8/interfaces/AggregatorV3Interface.sol\";\r\n\r\ncontract transacaoParcelada {\r\n    AggregatorV3Interface internal dataFeed;\r\n    uint public fundedValue;\r\n    uint public totalValue;\r\n    uint public totalSponsors;\r\n    uint public rate;\r\n    address public owner;\r\n\r\n    constructor(uint _rate) {\r\n        dataFeed = AggregatorV3Interface(\r\n            0x59F1ec1f10bD7eD9B938431086bC1D9e233ECf41\r\n        );\r\n        rate = _rate;\r\n        owner = msg.sender;\r\n    }\r\n\r\n    struct transaction {\r\n        uint id;\r\n        int256 valor_ativo;\r\n        int256 parcelas;\r\n        int256 valorParcela;\r\n        int256 valorTotal;\r\n        address sender;\r\n        bool finalized;\r\n        uint256 valorEnviado;\r\n        uint256 slipage;\r\n        uint256 valMaisSlipage;\r\n        int256 valorPago;\r\n    }\r\n\r\n    transaction[] public transactions;\r\n    mapping(address => uint[]) public userTransactions;\r\n    mapping(address => uint[]) public myAcceptedTransactions;\r\n    mapping(address => uint256) public stakedEth;\r\n\r\n    function createTransaction(\r\n        int256 _parcelas,\r\n        uint quantidade,\r\n        uint256 _slipage\r\n    ) public payable {\r\n        require(\r\n            msg.value == quantidade + _slipage,\r\n            \"Quantidade de ether enviada deve ser igual ao passado para a funcao\"\r\n        );\r\n        require(_parcelas > 0, \"Parcelas deve ser maior que 0\");\r\n        (, int256 _valor_ativo, , , ) = dataFeed.latestRoundData();\r\n        int256 _valorTotal = _valor_ativo * int256(msg.value);\r\n        int256 _valorParcela = _valorTotal / _parcelas;\r\n        uint valSlipage = (msg.value + _slipage) * (1 + rate);\r\n\r\n        userTransactions[msg.sender].push(transactions.length);\r\n        transactions.push(\r\n            transaction(\r\n                transactions.length,\r\n                _valor_ativo,\r\n                _parcelas,\r\n                _valorParcela,\r\n                _valorTotal,\r\n                msg.sender,\r\n                false,\r\n                msg.value,\r\n                _slipage,\r\n                valSlipage,\r\n                0\r\n            )\r\n        );\r\n        payable(msg.sender).transfer(quantidade);\r\n    }\r\n\r\n    function executeParcel(uint _id) public {\r\n        require(\r\n            msg.sender == owner,\r\n            \"Somente o dono pode executar essa funcao\"\r\n        );\r\n        require(transactions[_id].finalized == false);\r\n        require(\r\n            transactions[_id].parcelas > 0,\r\n            \"Todas as parcelas ja foram pagas\"\r\n        );\r\n        (, int256 _valor_ativo, , , ) = dataFeed.latestRoundData();\r\n        int256 valMaisSlipageAtual = int256(transactions[_id].valMaisSlipage) *\r\n            (_valor_ativo);\r\n\r\n        int256 valor_atual = _valor_ativo *\r\n            int256(transactions[_id].valorEnviado);\r\n        if (valor_atual < valMaisSlipageAtual) {\r\n            transactions[_id].finalized = true;\r\n        } else {\r\n            transactions[_id].valorPago = ((int256(\r\n                transactions[_id].valorEnviado\r\n            ) - transactions[_id].valorPago) /\r\n                int256(transactions[_id].parcelas));\r\n            transactions[_id].parcelas -= 1;\r\n        }\r\n    }\r\n\r\n    function executeAutomation() public {\r\n        require(\r\n            msg.sender == owner,\r\n            \"Somente o dono pode executar essa funcao\"\r\n        );\r\n        for (uint i = 0; i < transactions.length; i++) {\r\n            if (transactions[i].finalized == false) {\r\n                executeParcel(i);\r\n            }\r\n        }\r\n    }\r\n\r\n    function getMyTransactions() public view returns (uint[] memory) {\r\n        return userTransactions[msg.sender];\r\n    }\r\n\r\n    function getMyAcceptedTransactions() public view returns (uint[] memory) {\r\n        return myAcceptedTransactions[msg.sender];\r\n    }\r\n\r\n    function getTransactions() public view returns (transaction[] memory) {\r\n        return transactions;\r\n    }\r\n\r\n    function getTransaction(uint _id) public view returns (transaction memory) {\r\n        return transactions[_id];\r\n    }\r\n\r\n    function stakeEth() public payable {\r\n        stakedEth[msg.sender] += msg.value;\r\n        totalSponsors += 1;\r\n        totalValue += msg.value;\r\n    }\r\n\r\n    function myStakedEth() public view returns (uint256) {\r\n        return stakedEth[msg.sender];\r\n    }\r\n\r\n    function withdrawStakedEth(uint256 _amount) public {\r\n        require(\r\n            stakedEth[msg.sender] >= _amount,\r\n            \"Voce nao tem ether suficiente staked\"\r\n        );\r\n        if (stakedEth[msg.sender] == _amount) {\r\n            totalSponsors -= 1;\r\n        }\r\n\r\n        stakedEth[msg.sender] -= _amount;\r\n        payable(msg.sender).transfer(_amount * (1 + rate));\r\n    }\r\n\r\n    function withDrawExcedent(uint _id) public {\r\n        require(\r\n            msg.sender == transactions[_id].sender,\r\n            \"Somente o dono da transacao pode executar essa funcao\"\r\n        );\r\n        require(\r\n            transactions[_id].finalized == true,\r\n            \"Transacao ainda nao foi finalizada\"\r\n        );\r\n        require(\r\n            transactions[_id].valorTotal > 0,\r\n            \"Nao ha excedente a ser retirado\"\r\n        );\r\n        uint256 excedent = uint256(transactions[_id].valorTotal);\r\n        transactions[_id].valorTotal = 0;\r\n        payable(msg.sender).transfer(excedent);\r\n    }\r\n}\r\n",
  "sourcePath": "C:\\Users\\lucas\\Desktop\\zoboo_wallet\\zoboo_app\\contracts\\transacaoParcelada.sol",
  "compiler": {
    "name": "solc",
    "version": "0.8.20+commit.a1b79de6.Emscripten.clang"
  },
  "schemaVersion": "3.4.13",
  "updatedAt": "2024-03-24T12:26:48.105Z",
  "networkType": "ethereum",
  "devdoc": {
    "kind": "dev",
    "methods": {},
    "version": 1
  },
  "userdoc": {
    "kind": "user",
    "methods": {},
    "version": 1
  }
}